:100000000C9484000C9496000C9496000C9496002A
:100010000C9496000C9496000C9496000C94390164
:100020000C9496000C9496000C9496000C945E012F
:100030000C9496000C9496000C9496000C949600E8
:100040000C9496000C9496000C9496000C949600D8
:100050000C9496000C9496000C9496000C949600C8
:100060000C9496000C9496006F12833A6F12833AA8
:10007000F4016F12033B6F12833AF401A69B443BD9
:100080006F12833AF4016F12833B6F12833AF401CB
:100090006F12833A6F12033BF4016F12033B6F122E
:1000A000033BF401A69B443B6F12033BF4016F1228
:1000B000833B6F12033BF4016F12833AA69B443BD0
:1000C000F4016F12033BA69B443BF401A69B443B07
:1000D000A69B443BF4016F12833BA69B443BF40177
:1000E0006F12833A6F12833BF4016F12033B6F125E
:1000F000833BF401A69B443B6F12833BF4016F12D8
:10010000833B6F12833BF40111241FBECFEFD4E079
:10011000DEBFCDBF21E0A0E0B1E001C01D92AD3057
:10012000B207E1F70E9468010C9410030C940000E0
:1001300083E480937C0080917A00806480937A00CD
:1001400080917A0086FDFCCF409178005091790033
:1001500024EF31E0429FC001439F900D529F900DCC
:1001600011246FEF73E00E94FC02CB01089580938D
:10017000060140E951E0849F9001859F300D1124D4
:10018000309389002093880030938B0020938A005D
:1001900008952B9A2FEF8DE399E4215080409040F1
:1001A000E1F700C000002B98089580E480937C0064
:1001B00080917A00806480937A0080917A0086FD35
:1001C000FCCF2091780030917900325081E4809307
:1001D0007C0080917A00806480937A0080917A001C
:1001E00086FDFCCF8091780090917900925042E496
:1001F00040937C0040917A00406440937A004091A3
:100200007A0046FDFCCF409178005091790037FF8D
:1002100003C03195219531092F3131055CF49C01E2
:1002200097FF04C022273327281B390B2F313105B4
:1002300024F408952D3331053CF497FF03C09195C4
:1002400081959109CD97A4F080E00E94B7000E94AB
:10025000C900289A2FEF8BE792E921508040904007
:10026000E1F700C00000289810920C0110920B01D9
:1002700008951F920F920FB60F9211248F939F93A0
:10028000AF93BF938091070190910801A09109015C
:10029000B0910A010196A11DB11D809307019093B1
:1002A0000801A0930901B0930A01BF91AF919F91FA
:1002B0008F910F900FBE0F901F9018951F920F9265
:1002C0000FB60F9211240F900FBE0F901F9018952C
:1002D000F8948AB180678AB984B18F6084B986E85E
:1002E00080937A0082EA809380008AE18093810083
:1002F0008FE39CE9909387008093860082E080934F
:10030000B00086E08093B1008BE98093B3008091C8
:10031000700082608093700078945C9A2FEF81EE79
:1003200094E0215080409040E1F700C00000289AFE
:100330002FEF83ED90E3215080409040E1F700C023
:10034000000028982FEF87EA91E6215080409040E6
:10035000E1F700C0000080E00E94B7002FEF83E2C9
:1003600094EF215080409040E1F700C0000081E010
:1003700090E090930C0180930B0110920701109272
:1003800008011092090110920A01109201011092C5
:1003900000018AE0982EC4E0D0E006E010E090E58D
:1003A000892E25E0E22EF12C32E0C32ED12C43E041
:1003B000A42EB12C50EA752E80910B0190910C0166
:1003C0008330910509F475C080F481309105B1F155
:1003D000029709F461C08FEF91EE24E081509040C4
:1003E0002040E1F700C00000E7CF8530910509F417
:1003F000F7C008F4C7C0069771F780E00E94B70005
:100400008091070190910801A0910901B0910A0122
:100410000B97A105B105F8F20E94C900289A8FEF49
:100420009BE722E9815090402040E1F700C00000A6
:10043000289810920C0110920B01CDCF80910701EA
:1004400090910801A0910901B0910A01C297A105FC
:10045000B10598F48091070190910801A0910901DC
:10046000B0910A01C296A11DB11D880F80930601AB
:10047000809106010E94B7000CC0D0920C01C0927E
:100480000B011092070110920801109209011092BD
:100490000A010E94D5009FCF0E949800843F91409E
:1004A00018F470920601E4CFB0920C01A0920B01F7
:1004B000E8CF8091000190910101409728F0D093FE
:1004C0000C01C0930B0187CF809100019091010135
:1004D000989EF001999EF00D1124E859FF4F8591E7
:1004E0009591A591B4918091000190910101989E00
:1004F000F001999EF00D1124E459FF4F85919591DB
:10050000A591B4918091000190910101989EF00114
:10051000999EF00D1124E059FF4F8591949180919F
:10052000070190910801A0910901B0910A01409141
:100530000201509103016091040170910501841B37
:10054000950BA60BB70BC397A105B10508F4A1CF76
:100550008091070190910801A0910901B0910A01D1
:100560008093020190930301A0930401B0930501CD
:100570008091000190910101019690930101809377
:1005800000017FCF8091070190910801A09109019E
:10059000B0910A0140910201509103016091040160
:1005A00070910501841B950BA60BB70BC397A10592
:1005B000B10508F46ECF8091070190910801A091D8
:1005C0000901B0910A018093020190930301A09365
:1005D0000401B0930501F0920C01E0920B0151CFA0
:1005E0000E949800C39718F08092060141CF1093A3
:1005F0000C0100930B0145CFAA1BBB1B51E107C0A7
:10060000AA1FBB1FA617B70710F0A61BB70B881FA2
:10061000991F5A95A9F780959095BC01CD01089531
:04062000F894FFCF7C
:00000001FF
